:020000040800F2
:10000000F0570020CD000008A90F00085D0F000880
:1000100000000000000000000000000000000000E0
:10002000000000000000000000000000AD0F00080C
:100030000000000000000000AB0F0008AF0F000838
:10004000DF00000800000000DF000008DF000008FB
:10005000DF000008DF000008DF000008DF00000804
:1000600000000000DF000008DF000008DF000008DB
:10007000DF000008DF000008DF00000800000000CB
:10008000DF000008DF000008DF000008DF000008D4
:10009000DF000008DF000008DF000008DF000008C4
:1000A000DF000008DF000008DF000008DF000008B4
:1000B000DF000008DF0000080348854600F0EEF886
:1000C0000048004779490008F0570020044880475D
:1000D00004480047FEE7FEE7FEE7FEE7FEE7FEE72F
:1000E00025100008B900000830B50B460146002075
:1000F0002022012409E00D46D5409D4205D31D462E
:100100009540491B2546954040191546521E002D25
:10011000F1DC30BD70B500242546002801DA012449
:100120004042002901DA01254942FFF7DDFFAC42D8
:1001300000D04042002C00D0494270BDF0B51FB441
:100140000646002082B005464024019100901BE045
:10015000019922460F46304600F08EF8049A059B1E
:10016000801A994110D310461946224600F074F8BF
:10017000361A8F410197224601200021009F00F08E
:100180006BF838184D4100902046641E0028DFDCD3
:10019000019B00982946324607B0F0BD10B5431ABE
:1001A000934209D28318881803E0401E01785B1E31
:1001B0001970521EF9D210BD03460B439B0703D0A2
:1001C00009E008C9121F08C0042AFAD203E00B781C
:1001D0000370401C491C521EF9D210BDD2B201E07E
:1001E0000270401C491EFBD270470022F6E710B592
:1001F00013460A4604461946FFF7F0FF204610BD95
:10020000421C0178401C0029FBD1801A704730B590
:1002100004460020034600E05B1C934203D2E05CEE
:10022000CD5C401BF8D030BD10B54843044604F007
:10023000C5FB002805D00021002C02D0641E01550A
:10024000FAE710BD0321001D401E037812021A4375
:10025000491EF9D51046704710B5202A04DB014627
:10026000203A9140002010BD914020239C1A034663
:10027000E3401943904010BD10B5202A04DB084626
:10028000203AD040002110BD0B46D340D04020245E
:10029000A21A91400843194610BD0000064C0125E2
:1002A000064E05E0E36807CC2B430C3C984710341E
:1002B000B442F7D3FFF704FF489F0008689F000887
:1002C00070B58C180578401C6B075B0F01D1037863
:1002D000401C2A1106D10278401C03E006780E70FB
:1002E000401C491C5B1EF9D12B0705D40023521E6C
:1002F0000DD40B70491CFAE70378401CCB1A921CF2
:1003000003E01D780D70491C5B1C521EF9D5A142FB
:10031000D8D3002070BD0000F0B5002388E0012292
:100320009A409446144022007ED04C68022C01D0A2
:10033000122C0CD1DC08A40027183C6A5D07ED0ED6
:100340000F26AE40B4430E69AE4026433E620568B8
:100350005E000324B4400F79A543BF07BF0FB74029
:100360002F4307604D68012D05D0022D03D0112DBC
:1003700001D0122D0ED18568CF68A543B7402F4319
:10038000876047686546AF430D79ED06ED0F9D40E8
:100390003D434560C568A5438C68B4402C43C460A8
:1003A0004C68E40043D59D08244CAD002F193C6EE9
:1003B0009D07EE0E0F25B540AC4305252D07A8423D
:1003C00001D100250FE01E4DA84201D101250AE010
:1003D0001C4DA84201D1022505E01B4DA84201D1C8
:1003E000032500E00525B5402543144C3D66134D1B
:1003F00080352E684F689643FF0300D516432E6064
:100400006E684F689643BF0300D516436E6025683B
:100410004E689543F60200D51543256065684E6821
:100420009543B60202D500E001E0154365605B1C10
:100430000A681446DA4000D071E7F0BD00180240A7
:100440000004005000080050000C00500148806873
:100450007047000000000020024881684268891847
:10046000816070470000002010B508480024016832
:10047000821511430160204600F00AF8002801D0DF
:10048000012401E000F028F8204610BD00200240C1
:1004900070B50F4E002471680546002915D07D20E7
:1004A000C000FFF721FE01460A480068FFF71CFE66
:1004B00000F0F8FB002808D1042D06D200222946BE
:1004C000401E00F01FF8356000E00124204670BD9A
:1004D000000000200C00002008B509480168012236
:1004E0001143016000681040009005484038C26B1D
:1004F00001040A43C263C06B0840009008BD0000BD
:100500004010024010B501F04DF810BD10B50F4C71
:10051000216803225202914301432160C11FFF3928
:10052000FA390ED10A480621006848430949FFF705
:10053000DBFD401C02E0002805D0401E6169490532
:10054000F9D4002010BD032010BD00000070004051
:100550000C00002040420F00F8B504460068002659
:10056000524D800358D5514800274038C06BC00019
:1005700009D44E484038C26B01040A43C263C06BC1
:100580000840012700904A48016882151143016024
:10059000FFF75CFF009005E0FFF758FF0099401A55
:1005A000022825D842480068C005F5D5E86903212E
:1005B000090208400FD0A16981420CD0E8690321EB
:1005C0000902EA698843012109040A43EA61EA69E8
:1005D0008A43EA61E861C0070FD0FFF737FF009058
:1005E00008E0FFF733FF0099411A3248814201D9F0
:1005F000032609E0E8698007F3D5E86903210902C9
:100600008843A1690843E861002F05D02748403896
:10061000C16B02049143C1632078C00705D06869AB
:10062000616880088000084368612078800705D5EC
:1006300068690C218843A1680843686120784006F6
:1006400006D56869032109038843E16808436861A6
:100650002088400411D568696169800080080843DA
:100660006861012160698907884206D10F484038D6
:10067000C168012212041143C1602088000512D50F
:10068000686903218903884321690843686101215E
:1006900020698903884206D104484038C168012294
:1006A00012041143C1603046F8BD00004010024002
:1006B0000070004088130000F8B50F46060043D0D4
:1006C0004D4D28684007400FB84213D22868C00833
:1006D000C00038432860FFF7B9FE044605E0FFF785
:1006E000B5FE011B4548814261D828684007400F8C
:1006F000B842F4D13068424C81070DD5400704D58B
:10070000A068072109030843A060A0680F2109021F
:100710008843B1680843A0603078C00732D0706861
:1007200001280AD002280BD000280FD034494031CC
:1007300003280ED0C969890704E02168890301E014
:1007400021688901002906DB0120F8BD21684905DF
:10075000F8E7096AEFE7A168C908C9000143A16089
:10076000FFF774FE009006E0FFF770FE0099411A53
:10077000224881421BD8A068382108407168C9000E
:100780008842F1D128684007400FB84217D91A486B
:100790000168C908C90039430160FFF757FE0546E3
:1007A00007E0FFF753FE411B1448814201D90320A3
:1007B000F8BD114800684007400FB842F1D13078C9
:1007C000400706D5A068072109038843F16808435C
:1007D000A06000F031F8A1683C2289091140094A63
:1007E000515CC906C90EC84007490860074800683F
:1007F000FFF74EFEF8BD0000002002408813000005
:1008000000100240F88F00080C00002000000020BB
:100810000648074900688968064A4904490F890063
:10082000515CC906C90EC840704700000C0000208A
:10083000001002403890000810B5204CA068204AF3
:100840008006400F16D0A0688006410F5010012985
:100850000FD0A1688906490F022912D0A06880062E
:10086000400F042823D0A0688006400F032821D021
:10087000002010BD206801218004400F81401046F7
:1008800012E0E1688B07E1689B0F4906490F491C9C
:10089000032B00D01046FFF727FCE1684904490EFE
:1008A0004843E168490F491CFFF71EFC10BD0120B9
:1008B000C00310BD7D20000210BD000000100240EA
:1008C0000024F400F8B504007ED020783827C00753
:1008D000EB4D002846D0A868E96838408907890FA1
:1008E000102802D008280BD001E0032908D00120ED
:1008F0006268000482420AD129680143296015E038
:10090000286880032ED560680028DDD02AE0052302
:1009100001211B0489049A422A6802D10A432A60F1
:10092000EAE782432A6028688843286060680028D4
:100930000CD0FFF78BFD064604E0FFF787FD801B18
:10094000642873D828688003F7D50BE0FFF77EFD95
:10095000064604E0FFF77AFD801B6428F1D828687A
:100960008003F7D42078800769D5A868E968384003
:100970008A070721920FC902102802D0002813D03D
:1009800001E0022A10D0E068002846D02868884399
:100990002169084328602868FF2101310843286045
:1009A000FFF754FD06462CE02A68520502D5E2689E
:1009B000002A89D06A687F231B029A4363691B025D
:1009C0001A436A60002800E08DE00ED12868884351
:1009D000216908432860286801218004400F814074
:1009E000A848FFF781FBA8490860A8480068FFF7FE
:1009F0004FFD002877D122E0FFF728FD801B022859
:100A00009FD828684005F7D568687F210902884388
:100A1000616909020843686011E02968FF2001301C
:100A200081432960FFF712FD064605E098E0FFF7D5
:100A30000DFD801B022884D828684005F7D4207853
:100A4000934E00072ED5A8688006400F03280AD0D1
:100A5000A0690028306A16D0012108433062FFF7F0
:100A6000F5FC07460BE0306A80071BD5A06900281B
:100A70009FD017E0FFF7EAFCC01B022870D8306A4D
:100A80008007F7D50EE0400840003062FFF7DEFC3B
:100A9000074604E0FFF7DAFCC01B022860D8306A82
:100AA0008007F7D4207840076CD5A8680027800617
:100AB000400F042818D0E86BC00008D4E96B01206F
:100AC00000070143E963E96B014001270091714888
:100AD0000168C90519D40168821511430160FFF747
:100AE000B5FC00900DE083E0F06980074AD5A0686E
:100AF00000287DD046E0FFF7A9FC0099401A0228A3
:100B00002ED864480068C005F5D5A168012910D029
:100B100004200529F16911D049084900F161F16902
:100B20008143F161A068002816D0FFF78FFC009088
:100B30000EE0F06901210843F061F3E70143F16140
:100B4000F7E7FFF783FC0099411A534881426DD8BB
:100B5000F0698007F5D50EE0FFF778FC009007E01C
:100B600064E0FFF773FC0099411A4B4881425DD85D
:100B7000F0698007F5D4002F04D0E96B012000074D
:100B80008143E963E069002877D0A9688906490FA5
:100B9000022951D001263606022828680DD0B0431C
:100BA0002860E86880088000E860E8683B49084001
:100BB000E860FFF74BFC04463AE0B0432860FFF7DB
:100BC00045FC074604E0FFF741FCC01B02282DD876
:100BD00028688001F7D4616A206AA26A0843E16A42
:100BE000120211430843216B0843E9682C4A00E0D4
:100BF00041E011400843E860286830432860E86815
:100C0000012109070843E860FFF720FC044604E0DF
:100C1000FFF71CFC001B022808D828688001F7D5C4
:100C20002BE0FFF713FC001B022801D90320F8BDBD
:100C300028688001F5D420E00128F8D0E868226A0D
:100C40008107890F914216D17021626A0140914259
:100C500011D17F21A26A09020140120291420AD1F8
:100C60001F214904E26A0140914204D1400F216BE7
:100C70004007884201D00120F8BD0020F8BD0000E7
:100C8000001002400024F4000C00002000000020AE
:100C9000401002400070004088130000FFFFFEEF8C
:100CA0008C80C11F094910B5401E884201D901201E
:100CB00010BD074C60610321081F00F073FC002089
:100CC000A06107202061002010BD0000FFFFFF0091
:100CD00000E000E030B5014660310A7F012A18D0FB
:100CE00001220A77242302468032144613600368E7
:100CF0001A681D686D086D001D6001235B079A432B
:100D00000023436600680260202020600B771846AD
:100D100030BD022030BDF8B5054604466035287F59
:100D200001281DD001202877242220468030074644
:100D3000026020680668026852085200026020685B
:100D4000826807235B069A430A438260204600F0CC
:100D500071F9206806602020386000202877F8BDEF
:100D60000220F8BDF8B5054604466035287F012805
:100D70001CD00120287724222046803007460260BC
:100D80002068066802685208520002602068826883
:100D9000D200D2080A438260204600F04BF9206856
:100DA00006602020386000202877F8BD0220F8BDBA
:100DB00070B5040006D02046803005460068002843
:100DC00002D007E0012070BD00217C2001552046A3
:100DD00000F026F8242028602068016849084900AE
:100DE0000160204600F0EEF90128ECD0A06A00284E
:100DF00002D0204600F04EF9206841680922D20254
:100E000091434160206881682A2291438160206873
:100E10000168012211430160204600F0A1F970BD74
:100E200010B586B0044614216846FFF7DEF9114973
:100E3000206888421CD11048C26B012149040A4332
:100E4000C263C26B0A400592426B01210A434263AE
:100E5000406B0491084005900C2000900220019006
:100E6000002002900390052069460007FFF754FA1E
:100E700006B010BD0044004000100240FFB5074618
:100E800004468037386885B00D46202864D1002D8F
:100E90000CD00798002809D00120A16800038142E6
:100EA00007D12069002804D1E80702D0012009B049
:100EB000F0BD204660300290007F01284CD002989F
:100EC000012101770020B86021203860FFF7BEFAC9
:100ED0000190264640360798B0820798F08201209C
:100EE000A1680003814202D12069002802D0039545
:100EF000002515E00020039012E00022802120460A
:100F000000F0E6FA002818D10398002817D02168CD
:100F1000007888620398401C0390F08A401EF0829B
:100F2000F08A019B002808980090E6D10022402119
:100F3000204600F0CDFA002808D00320B7E7288823
:100F40002168C005C00D8862AD1CE6E7202038602E
:100F5000029900200877AAE70220A8E7FEE7000030
:100F600010B510480E490160E1214902416000219D
:100F70008160C16001618161C16101620C224162D5
:100F800042618162FFF714FF00210648FFF7EAFE85
:100F900000210448FFF7BFFE0248FFF79BFE10BD8B
:100FA000004400408401002070477047704710B52E
:100FB000FFF752FA10BD30B599B034216846FFF7FB
:100FC00014F900240D940E940F941C2111A8109470
:100FD000FFF70BF901204002FFF798FA0225E8011C
:100FE000039000954020059008200A9080030B9004
:100FF0000795000304940C90089509946846FFF740
:1010000061FC07200D900F9402210E9510940DA8FD
:10101000FFF752FB11A811951394FFF79DFA19B031
:1010200030BD000001200249C00688607047000002
:1010300000ED00E0F0B513A106C985B00192009162
:1010400012A206CA039202910446416E403400295E
:1010500015D000688168806809014D0F400F02AE0D
:10106000315C6F46385CC000FFF73EF86085785D04
:10107000715DC000FFF738F8208505B0F0BD012094
:101080006085F9E70101010307010000080402047B
:101090000801010110B5018DC90707D001684A6830
:1010A00001235B049A43C36A1A434A60018D89078E
:1010B00007D501684A6801231B049A43036B1A434E
:1010C0004A60018D490707D501684A6801239B04DE
:1010D0009A43436B1A434A60018D090707D501689B
:1010E0004A680123DB039A43836B1A434A60018DEC
:1010F000C90607D50268916801231B039943C36B96
:1011000019439160018D890607D501688A6801231A
:101110005B039A43036C1A438A60018D490612D51A
:1011200003685A6801210905446C8A4322435A60C6
:10113000426C8A4207D10268516803235B059943D8
:10114000836C19435160018D090607D501684A680F
:101150000123DB04C06C9A4302434A6010BD0000C7
:10116000FEB50546002680350446AE60FFF76EF9F1
:10117000019020680068124F000709D501210097EF
:10118000002249052046019B00F0A2F900280DD15C
:101190002068006840070BD50121009700228905CF
:1011A0002046019B00F094F9002801D00320FEBDE9
:1011B000202028606860603426770020FEBD000093
:1011C000FFFFFF01F8B5044680682169E269084322
:1011D0006169002611430843616E0143206802687B
:1011E000B24B1A400A430260216848680322120386
:1011F0009043E26810434860A169206A226808436E
:101200009168AB4B1940014391602068C16A626AE2
:10121000090909011143C162A64A2068A649904202
:101220000CD148698007800F23D0012804D0022800
:101230001FD003281CD111E004201AE09F4A9042DD
:101240000ED148690C21084013D0042811D0082879
:1012500002D00C280CD101E002200AE0082008E0AE
:101260009749884202D09749884201D1002000E086
:1012700010200122D203E169D511934B934F914283
:101280006FD1002806D0022835D004287AD008284B
:1012900069D17AE0FFF7BCFA76E0012815D0022880
:1012A00015D0032815D0042815D0052815D00628F8
:1012B00015D0072815D0082815D0092815D00A28D8
:1012C00015D00B2814D0012512E0022510E00425CA
:1012D0000EE006250CE008250AE00A2508E00C25AA
:1012E00006E0102504E0202502E0402500E08025EE
:1012F000294610461BE0606A002815D001282AD034
:1013000002282AD003282AD004282DD005282DD041
:1013100006282DD007282DD008282DD009282DD01B
:101320000A282DD00B2800D0012529461846FEF7A3
:10133000DBFE616840004A088018FEF7D5FE80B2E7
:1013400001461039B9420ED86049491C01400007D6
:10135000400F08437FE00225E7E70425E5E706257F
:10136000E3E716E00EE08CE00825DEE70A25DCE77F
:101370000C25DAE71025D8E72025D6E74025D4E765
:101380008025D2E7FFF758FA0246606A00289AD013
:1013900083E7002806D0022835D0042874D0082816
:1013A00079D174E0FFF734FA70E0012815D00228F3
:1013B00015D0032815D0042815D0052815D00628E7
:1013C00015D0072815D0082815D0092815D00A28C7
:1013D00015D00B2814D0012512E0022510E00425B9
:1013E0000EE006250CE008250AE00A2508E00C2599
:1013F00006E0102504E0202502E0402500E08025DD
:10140000294610461BE0606A002815D0012825D027
:10141000022825D0032825D0042825D0052825D04A
:10142000062825D0072825D0082825D0092825D02A
:101430000A2827D00B2800D0012529461846FEF798
:1014400053FE61684A088018FEF74EFE80B20146DE
:101450001039B9421FD82168C8601DE00225ECE7A9
:101460000425EAE70625E8E70825E6E70A25E4E794
:101470000C25E2E71025E0E72025DEE74025DCE744
:1014800002E008E08025D8E7FFF7D6F90246606A57
:101490000028A0D089E7012620460121403041855F
:1014A00001850020E06620673046F8BDF369FFCF74
:1014B000FFF4FF110038014040100240004400409A
:1014C00000480040004C00400024F400EFFF000002
:1014D000FFB581B017460E4604460A9D09E0681C18
:1014E00007D0FEF7B3FF0499401AA8420CD8002D8C
:1014F0000AD02068C169304688431AD00020B8421B
:10150000EDD0002005B0F0BD20680168FF22A132B7
:101510009143016020688168490849008160202169
:101520002046803001604160002060342077032035
:10153000E8E70120E3E700000FB410B503A9044B6E
:10154000044A029800F060F810BC08BC04B01847C8
:101550000949000878010020F8B5040C8BB2264632
:1015600082B25E430D0C1046370C58433604801986
:101570000021794116466E43370C360480197941B3
:1015800026466E438919F8BD30B47446641E25782A
:10159000641CAB4200D21D46635D5B00E31830BCA7
:1015A000184700008307FF22DB0E9A408907090EC7
:1015B0009940002808DB830809489B001B1818681D
:1015C00090430843186070470007000F08388308ED
:1015D00004489B001B18D86990430843D8617047A2
:1015E00000E400E000ED00E002E008C8121F08C1BE
:1015F000002AFAD170477047002001E001C1121F94
:10160000002AFBD170470000FFB591B00F46054698
:10161000002606E025280AD0149A139990476D1CDD
:10162000761C28780028F5D1304615B0F0BD00248E
:1016300000940121F34A029400E004436D1C2B78CE
:101640000846203B98401042F7D128782A280ED02F
:10165000022128780246303A092A15D8009A0A232E
:101660005A43303A80180C436D1C0090F1E701CFCB
:101670000090002805DA012040030443009840420E
:101680000090022004436D1C28782E2815D10420D8
:10169000044368786D1C2A280AD101CF6D1C029082
:1016A0000BE002990A225143303940186D1C029018
:1016B0002878014630390929F3D928786C2810D0C8
:1016C00006DC4C281AD068280ED06A2817D104E00E
:1016D000742813D07A2812D110E001204005044369
:1016E0000CE00121090501E0032109050C4369789B
:1016F000814203D10120000524186D1C6D1C28783F
:1017000003906E281ED00CDC632831D004DC002846
:101710008AD0582811D1B2E064287BD069280CD136
:1017200078E073282DD004DC6F2870D0702804D1A5
:10173000A7E075286CD078286BD0149A139990473D
:10174000761C62E06002400F022807D003280AD00E
:10175000042838680AD006603F1D56E03868F11743
:1017600006604160F8E738680680F5E70670F3E741
:101770003878694608740020487404A80390012052
:1017800003E0386803900020C0433F1D61070FD578
:10179000002101E00199491C029A0191914213DA5A
:1017A0008142F7DB019A0399895C0029F2D10BE0B1
:1017B000002101E00199491C01918142FADB019A63
:1017C0000399895C0029F5D101990098139A401A70
:1017D00000902146149B00F03BF9019980194618AE
:1017E00007E0039803990078491C0391149A139910
:1017F00090470198401E0190401CF2D12146149B55
:10180000139A009800F014F986196D1C09E741E05D
:1018100033E034E00A200021049005916002410F7A
:10182000022905D001CFC2179446032905D007E04D
:10183000FF1DFF08FF0003CF06E000B2C217944669
:10184000042902D140B2C1178C460022614694455A
:1018500006DA0A460021404291418C462D2102E0E1
:10186000210504D52B216A461176012103E0E10709
:1018700001D02021F7E7019154E00A200BE010206D
:1018800009E0102004900021042004430820059161
:10189000029003E008200021059104906002410FAE
:1018A000022905D001CF00229446032906D006E084
:1018B000FF1DFF08FF0003CF8C4603E080B2042920
:1018C00000D1C0B20021019121072BD503997029C5
:1018D00006D0049A1021059B4A401A4305D00EE019
:1018E00040216A461176012108E06146014306D095
:1018F00030216A4611760399517602210191049AAA
:101900000821059B4A401A430CD16146014301D18D
:10191000610707D530216A461176012101910299AC
:10192000491E02910399582904D037A103910FA9A8
:101930000F910DE039A1F9E76146059B049AFEF786
:10194000FDFB039B8C469B5C0F9A521E0F921370FB
:1019500061460143F0D10F9807A9081A203003907F
:10196000600704D5012000048443029801E00120AF
:1019700002900399884201DD401A00E000204118DE
:101980000290019809180098401A0090E00306D4CC
:101990002146149B139A009800F05AF886190020EB
:1019A000049008E006A9085C149A139990470498DB
:1019B000401C761C049001998842F3DBE0030CD5AF
:1019C0002146149B139A009800F042F8861904E00F
:1019D000149A302013999047761C0299481E029061
:1019E0000029F5DC08E00F980F990078491C0F9149
:1019F000149A13999047761C0399481E0390002966
:101A0000F1DCFBE60928010030313233343536375A
:101A1000383961626364656600000000303132333A
:101A200034353637383941424344454600000000DA
:101A3000F8B5044600251E461746880404D405E080
:101A400039462020B0476D1C641EF9D52846F8BDE4
:101A5000FFB50446002581B01E46C80301D53027D6
:101A600000E02027880404D505E038460399B047F4
:101A70006D1C641EF9D5284605B0F0BD03685B18DF
:101A80000360002010568B4201D2012100E00021AA
:101A900040181070704770B500231C460568ED189B
:101AA00005609D4201D2012300E000230E68AD19BC
:101AB00005600E68B54201D2012500E00025641CD6
:101AC000EB18E4B2001D091D022CE7D31068C01802
:101AD000106070BDF0B55F4B00209D440121FFAD4B
:101AE00004356B468200A9508A0098504A000C06C3
:101AF00001D51B2400E0002462404A40401CD1B2C2
:101B0000FF28EFDD0021544A01208C0010514400D1
:101B1000000601D51B2000E000204440491CE0B233
:101B20000A29F2DB4D4963204D4C08700022E27017
:101B30000122603C910068464158FF20401A810014
:101B400068584300C1110B43DBB25E00D90958400D
:101B50000E43F3B25E00D90958400E43F3B25E0063
:101B6000D9090E435840F3B2584063213B4B4840DB
:101B700098542254521CFF2ADCDD00263748825D2F
:101B80005000110601D51B2100E000214840C4B2DD
:101B90001002234660401104534048401906484053
:101BA0003049B40008511821C8412F490851182163
:101BB000C8412E4908511821C8412D4908512848CB
:101BC0006038805D00282BD08200684687580E99C7
:101BD000C819FF21FEF79EFAFFA889000430455876
:101BE0000998FF21C019FEF795FAFFA88900043073
:101BF0004058FF21000245400D98C019FEF78AFAAF
:101C0000FFA889000430405AFF21000445400B988A
:101C1000C019FEF77FFA8900FFA80430405801E0A0
:101C200000252846000645400D48A03005511820E3
:101C3000C541104805511820C5410F4805511820CD
:101C4000C5410E48761C0551FF2E97DD014B5B42C6
:101C50009D44F0BDFCF7FFFFC8270020C805002009
:101C600028170020C8060020C80A0020C80E00203F
:101C7000C8120020C81B0020C81F0020C823002055
:101C800010B5002203680C681B1903600C68A3429E
:101C900001D2012300E00023521CD2B2001D0B60D0
:101CA000022AEFD310BD0000F8B50024E4430F462C
:101CB0000646002512E0705D082106F050FE000681
:101CC00044400A490820002C02DA64004C4000E03D
:101CD0006400401E0006000EF5D16D1CBD42EADB1B
:101CE0002021204606F03BFEC043F8BDB71DC104CD
:101CF000FFB583B0064614460D460C480C9F02F013
:101D0000EFFE80223146094802F0F0FE01972B4693
:101D1000009400210548069A02F086FE002802D0B1
:101D2000002007B0F0BD0120FBE700009004002078
:101D3000F8B50546C06D1746C01DC4080E46A3423F
:101D400000D81C4622463946304605F0CCFE070036
:101D500017D1E86DE100814205D9091A304606F035
:101D6000ACF807000DD129464C310C46304605F041
:101D7000B5F9002805DB31462246084606F06BF926
:101D800007463846F8BD0000FFB5BBB03B9926AE0C
:101D9000C96D4698C91DCD0805F06CF807000DD037
:101DA00037A805F093FC26A803F0E4FD2A4605A910
:101DB0003E9806F076F9040026D102E016483FB0BE
:101DC000F0BD37A9459B449A3B98FFF7B1FF04004B
:101DD0001AD105A841192A4637A806F062F904006D
:101DE00012D16B0005AA3946304603F074FE4599BE
:101DF00047980490094A01A846C044983BAC00901B
:101E00000FCC00F00DF8044626A803F0A9FD37A872
:101E100005F091FB2046D2E780B0FFFF7F59000814
:101E2000FFB59DB0054615A819910390686D1BAFCD
:101E30001CAE002810D00121209805F038F90028A8
:101E400007DB29464C310D91209805F047F9002811
:101E500004DB4C4821B0F0BD4B48FBE704A803F07D
:101E6000BDFC15A805F032FC0EA805F02FFC11A84A
:101E700005F02CFC00201B9001CF0A2807DC002075
:101E8000306028462830149001CE0A2802DD3D4CEF
:101E9000803C68E02846299B289A039903F0BCF906
:101EA000040060D1289800226B46299907C304A931
:101EB0002846149B039A03F0DFFB040053D104A9C6
:101EC0000D9A199805F071FD04004CD10021199864
:101ED00005F0EDF80028D7D00EA92846279B269AB2
:101EE000FFF726FF04003ED111A92846299B289A16
:101EF00003F092F9040036D1209A19991F9805F041
:101F000091FD04002FD10EA908461F9A05F055F83F
:101F1000040028D10EA911AA084605F083FD04008B
:101F200021D1039911AA084605F07CFD04001AD1BD
:101F30000D9A03991F9805F0CFFB040013D11F9948
:101F40000EAA084605F06EFD04000CD11F990D9AEB
:101F5000084605F02AFD040005D100211F9805F070
:101F6000A6F8002888D004A803F02AFC15A805F0DC
:101F7000E2FA0EA805F0DFFA11A805F0DCFA204617
:101F800068E7000080B3FFFF80B0FFFFF0B5A5B0A9
:101F9000064623A8154603300A4600901C4601A9B0
:101FA000684602F0C9FF00281FDB0746324601A938
:101FB000684602F0C1FF002817DB3E18324601A92F
:101FC000684602F04FFF00280FDB3618302201A9C7
:101FD000684602F0EBFF002807DB36183246284639
:101FE0000099FEF7DBF80020266025B0F0BD000068
:101FF000FFB59DB0054616A80F90144619AF03A86B
:1020000003F0ECFB13A805F061FB10A805F05EFBE4
:1020100016A805F05BFB19A805F058FB686D0028B1
:1020200023D00121269805F042F83C4E002862DBBF
:1020300029464C310C91269805F050F800285ADAC0
:102040000121279805F033F8002854DB0C992798D4
:1020500005F044F800284EDA234613A928461E9AB4
:10206000FFF766FE040047D102E02D4821B0F0BD25
:1020700010A80C9A279905F02FFB04003CD110AA58
:1020800013A90F9805F0CEFC040035D10F990C9AD6
:10209000084605F08AFC04002ED110AA384626997D
:1020A00005F0C0FC040027D1394608460C9A05F01B
:1020B0007CFC040020D1209800212B46009702913F
:1020C0000190283303A928460F9A03F041FB04002E
:1020D00012D103A803F0AAFA00280CD103A90846DC
:1020E0000C9A05F062FC040006D103A8269904F0BE
:1020F000F5FF002800D0344603A803F061FB13A8C5
:1021000005F019FA10A805F016FA16A805F013FA4A
:1021100019A805F010FA2046A8E7000000B2FFFF5A
:1021200080B0FFFFFFB50546104697B018301E4639
:10213000174600210F9004F0BAFF002816D0306A2D
:1021400000281AD0304618300021044604F0AFFFB2
:1021500000280DD0306A00280FD00121204604F05D
:10216000A6FF002809D0C6481BB0F0BD314600E0EC
:102170003946189803F02CF8F6E7684605F0A6FAF9
:1021800009A805F0A3FA03A805F0A0FA10A805F025
:102190009DFA06A805F09AFA0CA805F097FA13A87C
:1021A00005F094FA0F9A6846114605F03BFC0400CE
:1021B00073D12946684601F0C5FD0400F8D169468F
:1021C00009A80F9A05F02EFC0400F1D1294609A8B0
:1021D00001F0B8FD0400EBD169463246084605F02F
:1021E00021FC0400E4D12946684601F0ABFD04005F
:1021F000DED1324609A90C32084605F013FC040072
:10220000D6D1294609A801F09DFD0400D0D1694628
:102210003A46084605F01FFF04E069462A1D0846B5
:1022200004F0CBFE0400C3D10098002805DA002199
:10223000684604F03CFF0028EFD13A460C3209A969
:102240001646084605F007FF04E009A92A1D0846BE
:1022500004F0B3FE0400ABD10998002805DA002190
:1022600009A804F024FF0028EFD10021684604F0FB
:102270001EFF002807D06A4613A80F9905F0D2FB6D
:10228000040095D110E0002109A804F010FF0028F7
:1022900004D0189803F01EFBD9E097E03A46284690
:1022A000189900F07CFBD2E0294613A801F04AFD02
:1022B00004008AD16A46114603A805F0B3FB040066
:1022C00089D1294603A801F03DFD04007ED16A466C
:1022D00003A910A805F0A6FB040077D1294610A891
:1022E00001F030FD040071D103A93A46084605F01B
:1022F00099FB04006AD1294603A801F023FD0400DC
:1023000064D1022203A9684605F080FB04E0694617
:102310002A1D084605F050FE040057D1291D6846C5
:1023200004F0DCFE0028F2DA09AA114606A805F03E
:1023300079FB04004AD1294606A801F003FD0400F8
:1023400044D106A96A46084605F085FE04E006A9C0
:102350002A1D084604F031FE040079D106980028B1
:1023600005DA002106A804F0A2FE0028EFD106A994
:1023700010AA084605F06FFE04E006A92A1D0846CB
:1023800004F01BFE040063D10698002805DA002142
:1023900006A804F08CFE0028EFD103A906AA08467F
:1023A00005F059FE04E003A92A1D084604F005FEC5
:1023B00004004DD10398002805DA002103A804F099
:1023C00076FE0028EFD109AA03A900E040E0084604
:1023D00005F028FB04003BD1294603A801F0B2FC1C
:1023E000040035D110A93246084605F01BFB040055
:1023F0002ED1294610A801F0A5FC040028D110AA6E
:1024000003A90CA805F027FE04E00CA92A1D084624
:1024100004F0D3FD04001BD10C98002805DA00213C
:102420000CA804F044FE0028EFD106A9189804F087
:102430009CFE04000CD118980CA90C3004F095FEF9
:10244000040005D1189813A9183004F08EFE044634
:10245000684605F070F809A805F06DF803A805F0C6
:102460006AF810A805F067F806A805F064F80CA84B
:1024700005F061F813A805F05EF8204674E6000048
:1024800080B0FFFFF0B50E46054687B0002130460C
:1024900004F00DFE4B4F002813DB30460C300021BA
:1024A000044604F004FE00280BDB291D304604F02E
:1024B00015FE002805DA291D204604F00FFE00282D
:1024C00002DB384607B0F0BD03A805F0FFF8684608
:1024D00005F0FCF82246114603A805F0A3FA040013
:1024E00068D1294603A801F02DFC040062D13246D0
:1024F0001146684605F096FA04005BD12946684605
:1025000001F020FC040055D1A869002806D02A4615
:1025100069461032084604F050FD1BE0694603226C
:10252000084605F081FD04E069462A1D084604F0CE
:1025300044FD04003ED10098002813DA00216846CB
:1025400004F0B5FD0028EFD10CE069462A1D0846CD
:1025500005F032FD04002DD1291D684604F0BEFDB2
:102560000028F2DA69463246084605F05BFA0400B4
:1025700020D12946684601F0E5FB04001AD12A461D
:1025800069461C32084604F018FD04E069462A1D1D
:10259000084605F011FD04000CD1291D684604F021
:1025A0009DFD0028F2DA694603A804F097FD002893
:1025B00000D03C4603A804F0BEFF684604F0BBFF11
:1025C00020467FE780B3FFFFFFB50C4681B005468C
:1025D000491CFDF70AFE002610E000270AE020460D
:1025E00078438119049805F038F8A95DB84008438C
:1025F000A8557F1C03988742F1D3761CA642ECD3E2
:102600000020012118E06B5C01261A46034042407D
:10261000D007C00F361A681820388646C07F074694
:10262000704384461040184363465A406A54F2018E
:1026300017437246D777491CA142E4D905B0F0BDD3
:10264000FFB587B004461F460E466846119D05F04B
:102650003DF803A805F03AF820464C3000210690DA
:1026600004F0FBFF012802D017480BB0F0BD002199
:10267000304604F0F2FF002808D0002028703146D0
:10268000684604F072FD040016D101E00120F5E770
:10269000324603A8069905F0DEFC04000CD12A7826
:1026A00003A9684605F014FB040005D16B463946C2
:1026B000109A0998FFF788FF03A804F03CFF6846CA
:1026C00004F039FF2046D0E780B0FFFFFFB59DB092
:1026D00005461F4616460BA804F0F8FF14A804F0A0
:1026E000F5FF01A804F0F2FF0EA804F0EFFF04A824
:1026F00004F0ECFF11A804F0E9FF07A804F0E6FFDE
:1027000017A804F0E3FF1AA804F0E0FF3A461832D5
:1027100039460BA80A9204F050FC04E00BA92A1DCC
:10272000084605F049FC04007ED1291D0BA804F0E1
:10273000D5FC0028F2DA0BAA114614A805F072F9AC
:102740000400F1D1294614A801F0FCFA0400EBD1F1
:10275000394601A80A9A05F07EFC04E001A92A1D69
:10276000084604F02AFC0400DED10198002805DAAE
:10277000002101A804F09BFC0028EFD101AA11461A
:102780000EA805F04FF90400CED129460EA801F09D
:10279000D9FA0400C8D10EAA14A904A805F05BFC5C
:1027A00004E004A92A1D084604F007FC0400BBD17C
:1027B0000498002805DA002104A804F078FC002819
:1027C000EFD1269A11A818321746269904F0F5FB86
:1027D00004E011A92A1D084605F0EEFB0400A3D170
:1027E000291D11A804F07AFC0028F2DA3A4607A85D
:1027F000269905F030FC04E007A92A1D084604F0DC
:10280000DCFB040010D10798002805DA002107A896
:1028100004F04DFC0028EFD10BAA07A917A805F07A
:1028200001F9040000D100E081E0294617A801F079
:1028300089FA04007BD101AA11A91AA805F0F2F8BF
:10284000040074D129461AA801F07CFA04006ED164
:102850001AAA17A9304604F0B0FB040067D1294634
:10286000304601F06FFA04007BD13246114608462B
:1028700005F0D8F8040074D12946304601F062FA18
:1028800004006ED1304618301AAA17A9074605F081
:10289000E2FB04E039462A1D084604F08EFB0400E2
:1028A0005FD1B069002805DA0021384604F0FFFB4B
:1028B0000028EFD13A461146084605F0B3F8040067
:1028C0004FD12946384601F03DFA040049D13A4635
:1028D0001046279905F0A6F8040042D1294638464B
:1028E00001F030FA04003CD10EAA14A91E9805F09C
:1028F00099F8040035D129461E9801F023FA040006
:102900002FD11E982946183004AA1031064605F02A
:1029100089F8040025D12946304601F013FA040055
:102920001FD132460EA9104604F047FB05E018E01F
:1029300031462A1D084605F03FFB040011D1291D30
:10294000304604F0CBFB0028F2DA324604A91046E8
:1029500005F068F8040004D12946304601F0F2F988
:1029600004460BA804F0E7FD14A804F0E4FD01A858
:1029700004F0E1FD0EA804F0DEFD04A804F0DBFD88
:1029800011A804F0D8FD07A804F0D5FD17A804F09D
:10299000D2FD1AA804F0CFFD204621B0F0BDF0B55D
:1029A0008FB0054616460F4609A804F08FFE68460C
:1029B00004F08CFE03A804F089FE06A804F086FE4D
:1029C00030461830A9690C90002907D032461146CC
:1029D000684605F027F804007CD156E0024601461F
:1029E000684605F01FF80400F6D12946684601F054
:1029F000A9F90400F0D16A46314603A804F0DDFAD3
:102A000004E003A92A1D084605F0D6FA0400E3D124
:102A1000291D03A804F062FB0028F2DA6A46314659
:102A200006A805F018FB04E006A92A1D084604F0D4
:102A3000C4FA0400D0D10698002805DA002106A8BF
:102A400004F035FB0028EFD106AA03A9684604F07C
:102A5000E9FF0400C0D12946684601F073F904007B
:102A6000BAD10322694609A804F0D0FF04E009A9FD
:102A70002A1D084605F0A0FA0400ADD1291D09A8B9
:102A800004F02CFB0028F2DA5CE02946684601F0ED
:102A900059F90400A0D10322694609A804F0B6FF41
:102AA00004E009A92A1D084605F086FA040093D11E
:102AB000291D09A804F012FB0028F2DA284610307C
:102AC00000210D9004F0F3FA00283BD00C9A6846E0
:102AD000114600E0EEE004F0A5FF040084D1294691
:102AE000684601F02FF9040084D16A46114603A814
:102AF00004F098FF04008AD1294603A801F022F9C6
:102B0000040084D103A968460D9A04F08BFF0400E9
:102B100090D12946684601F015F904008AD109A927
:102B20006A46084604F049FA04E009A92A1D084645
:102B300005F042FA04008DD1291D09A804F0CEFA4F
:102B40000028F2DA32460C32114603A80D9204F046
:102B500069FF040084D1294603A801F0F3F80400BA
:102B60008BD1012103A805F057F904E003A92A1D20
:102B7000084605F021FA04008CD1291D03A804F0B1
:102B8000ADFA0028F2DA03AA3146684604F04AFF9B
:102B900004008CD12946684601F0D4F8040086D19F
:102BA0000121684605F038F904E069462A1D084607
:102BB00005F002FA04007DD1291D684604F08EFA62
:102BC0000028F2DA03AA114606A804F02BFF04003D
:102BD00070D1294606A801F0B5F804006AD1012198
:102BE00006A805F019F904E006A92A1D084605F013
:102BF000E3F904005ED1291D06A804F06FFA00284D
:102C0000F2DA09AA114603A804F00CFF040051D11E
:102C1000294603A801F096F804004BD103A96A469F
:102C2000084605F018FA04E003A92A1D084604F036
:102C3000C4F904003ED10398002805DA002103A856
:102C400004F035FA0028EFD103A96A46084605F0DA
:102C500002FA04E003A92A1D084604F0AEF90400B4
:102C600075D10398002805DA002103A804F01FFAA3
:102C70000028EFD1694603AA084605F0ECF904E004
:102C800069462A1D084604F098F904005FD10098AF
:102C9000002805DA0021684604F009FA0028EFD17F
:102CA000694609AA084604F0BDFE04004FD1294632
:102CB000684600E04BE001F045F8040047D1694662
:102CC00006AA084605F0C7F904E069462A1D084629
:102CD00004F073F904003AD10098002805DA0021C5
:102CE000684604F0E4F90028EFD106A80C9A0D9983
:102CF00004F098FE04002AD1294606A801F022F823
:102D0000040024D1012106A805F086F804E006A9F4
:102D10002A1D084605F050F9040018D1291D06A8FF
:102D200004F0DCF90028F2DA03A9384604F01DFAB1
:102D300004000CD1384669460C3004F016FA040041
:102D400005D1384606A9183004F00FFA044609A840
:102D500004F0F1FB684604F0EEFB03A804F0EBFB83
:102D600006A804F0E8FB20460FB0F0BDF8B5044615
:102D70001D46001D089F0E9E01F02AF8002D05D06B
:102D8000204629461030069A01F022F820463A469D
:102D90001C30079901F01CF8204632464C3006469C
:102DA0000D9901F015F8204628300A9A099901F08A
:102DB0000FF8204634300C9A0B9901F009F80125E0
:102DC000256407486564A064201D04F01BF9A06514
:102DD000304604F017F92566E0650020F8BD0000D4
:102DE00058010020F0B505464068144695B01E46CF
:102DF000A04202D2002015B0F0BD05910120039041
:102E0000009006A8022102900491A01B696813900B
:102E1000081AA7190190B84200D901972C2106A8D9
:102E2000FDF7E3F9A000A96812900918B000091A8B
:102E300011900198820006A8FDF7B0F91A980028B1
:102E400005D00146684605F038F80028D3D104992A
:102E50000198A600401801901B98361F002804D046
:102E6000A8681B9A815911408151204604E0002135
:102E70008300AA68401CD15069688142F7D869462E
:102E800003AA084604F0CEFD0028B4D129466A46BC
:102E9000084604F021F80028ADD169681398081A93
:102EA0000190B84200D901972C2106A8FDF79DF9A1
:102EB000A968129809181198091A0198820006A8A1
:102EC000FDF76CF91A98002805D00146684604F011
:102ED000F4FF00288FD104990198401801901B98A5
:102EE000002804D0A8681B9A815911408151002004
:102EF00003E0A200A968641C88506968A142F8D860
:102F0000694603AA084604F08DFD00289ED1294693
:102F10006A46084603F0E0FF6DE7FEB50026054669
:102F20000C21009604F0AAFB019000283FD1AC6868
:102F300068682146800007196A4618312046FEF766
:102F4000AAFDA9686A4620462831FEF7A4FD083488
:102F500069462046FEF794FEA9686A462046183165
:102F6000FEF799FDA9686A4620462031FEF793FDD9
:102F7000A9686A4620462831FEF78DFD0834694667
:102F80002046FEF77DFEA9686A4620462031FEF7FE
:102F900082FDA9686A4620462831FEF77CFD00982C
:102FA000A060083400E02660241DBC42FBD30198D9
:102FB000FEBD00001CB5002100910B4601910622C8
:102FC0000149FFF70FFF1CBD5C010020F0B591B077
:102FD000044600256846057101200C9008200D90DC
:102FE00003A8E02720210E90FDF7FFF80E212046D0
:102FF00004F044FB06007DD1A06801AA006800909F
:10300000A068C169684605F0B7FFA06801AAC16A57
:10301000684605F0B1FFA16800980860A068042127
:1030200040680090684641560571002901AA03DAFC
:10303000494205F0A1FF01E0FEF720FDA06801AACA
:10304000016A684605F098FFA06801AA016B68460E
:1030500005F092FFA16800984860A068042180688C
:103060000090684641560571002901AA03DA4942D9
:1030700005F082FF01E0FEF701FDA06801AA416AA8
:10308000684605F079FFA06801AA416B684605F023
:1030900073FFA16800988860A0680421C068009050
:1030A000684641560571002901AA03DA494205F034
:1030B00063FF01E0FEF7E2FCA06801AA816A6846AE
:1030C00005F05AFFA06801AAC1696846FEF7D6FC60
:1030D000A06801AAC16A6846FEF7D0FCA168009802
:1030E000C860A068042100690090684641560571D7
:1030F000002900E07DE001AA03DA494205F03CFF27
:1031000001E0FEF7BBFCA06801AAC16A684605F0B1
:1031100033FFA06801AA016A6846FEF7AFFCA06809
:1031200001AA016B6846FEF7A9FCA1680098086136
:10313000A068042140690090684641560571002945
:1031400001AA03DA494205F017FF01E0FEF796FCF9
:10315000A06801AA016B684605F00EFFA06801AAED
:10316000416A6846FEF78AFCA06801AA416B68467E
:10317000FEF784FCA16800984861A068042180697A
:103180000090684641560571002901AA03DA4942B8
:1031900005F0F2FE01E0FEF771FCA06801AA416BA8
:1031A000684605F0E9FEA06801AA816A6846FEF754
:1031B00065FCA168009888616A46042010560721C2
:1031C000002800DC0020A268D061009503E0A2681E
:1031D00000988B00D0506068491C8142F7D3684644
:1031E00004214156002904DA3B460CAA204601F08E
:1031F00077FB304611B0F0BD1CB5002100910B46A5
:10320000019107220149FFF7EDFD1CBD640100207B
:1032100010B5044640688EB0082802D200200EB0D7
:1032200010BD01200A906068C01F0B90092801D9C9
:103230001A48F4E7684628210C90FCF7D6FF0B9853
:10324000A168820068461C31FCF7A8FF1F210AA86C
:1032500004F033FE0028E2D10B980022401C0B90B2
:10326000FF21204604F0ACFD0028D8D10820002121
:1032700003E08300A268401CD15062688242F8D803
:103280000AA91322084604F0C1FB0028C7D1214631
:103290000AAA084603F020FEC1E7000080B0FFFF45
:1032A000F0B591B0044600256846057101200D90E7
:1032B00009200E90FF2703A8013724210F90FCF767
:1032C00094FF1021204604F0D9F906007ED1A068B1
:1032D00001AA00680090A068016A6846FEF7CEFB6C
:1032E000A06801AA416A6846FEF7C8FBA06801AA67
:1032F000C16A684605F040FEA06801AA016B6846F5
:1033000005F03AFEA06801AA416B684605F034FE5C
:10331000A06801AA816B684605F02EFEA16800989E
:103320000860A06804214068009068464156057115
:10333000002901AA03DA494205F01EFE01E0FEF76A
:103340009DFBA06801AA416A6846FEF797FBA0684A
:1033500001AA816A6846FEF791FBA06801AA016B89
:10336000684605F009FEA06801AA416B684605F0B1
:1033700003FEA06801AA816B684605F0FDFDA06808
:1033800001AAC16B684605F0F7FDA1680098486086
:10339000A0680421806800906846415605710029A4
:1033A00001AA03DA494205F0E7FD01E0FEF766FBFA
:1033B000A06801AA816A6846FEF760FBA06801AABE
:1033C000C16A6846FEF75AFBA06800E073E1416BF2
:1033D00001AA684605F0D0FDA06801AA816B684685
:1033E00005F0CAFDA06801AAC16B684605F0C4FDDE
:1033F000A16800988860A0680421C06800906846B1
:1034000041560571002901AA03DA494205F0B4FDCD
:1034100001E0FEF733FBA06801AAC16A6846FEF727
:103420002DFBA06801AAC16A6846FEF727FBA068C9
:1034300001AA016B6846FEF721FBA06801AA016B97
:103440006846FEF71BFBA06801AA416B6846FEF7C1
:1034500015FBA06801AAC16B684605F08DFDA06848
:1034600001AA016A684605F087FDA06801AA416AC1
:10347000684605F081FDA1680098C860A068042135
:1034800000690090684641560571002901AA03DAD7
:10349000494205F071FD01E0FEF7F0FAA06801AACB
:1034A000016B6846FEF7EAFAA06801AA016B68465C
:1034B000FEF7E4FAA06801AA416B6846FEF7DEFA5F
:1034C000A06801AA416B6846FEF7D8FAA06801AA75
:1034D000816B6846FEF7D2FAA06801AA416A684685
:1034E00005F04AFDA06801AA816A684605F044FD1E
:1034F000A16800980861A0680421406900906846AE
:1035000041560571002901AA03DA494205F034FD4C
:1035100001E0FEF7B3FAA06801AA416B6846FEF726
:10352000ADFAA06801AA416B6846FEF7A7FAA06849
:1035300001AA816B6846FEF7A1FAA06801AA816B17
:103540006846FEF79BFAA06801AAC16B6846FEF7C1
:1035500095FAA06801AA816A684605F00DFDA06889
:1035600001AAC16A684605F007FDA1680098486194
:10357000A0680421806900906846415605710029C1
:1035800001AA03DA494205F0F7FC01E0FEF776FAFA
:10359000A06801AA816B6846FEF770FAA06801AACC
:1035A000816B6846FEF76AFAA06801AAC16B68469B
:1035B000FEF764FAA06801AAC16B6846FEF75EFADE
:1035C000A06801AA816B6846FEF758FAA06801AAB4
:1035D000416B6846FEF752FAA06801AA016A684684
:1035E00005F0CAFCA06801AA416A684605F0C4FC5F
:1035F000A16800988861A0680421C06900906846AD
:1036000041560571002901AA03DA494205F0B4FCCC
:1036100001E0FEF733FAA06801AAC16B6846FEF725
:103620002DFAA06801AAC16B6846FEF727FAA068C8
:1036300001AAC16B6846FEF721FAA06801AA016AD7
:103640006846FEF71BFAA06801AA816A684605F081
:1036500093FCA06801AAC16A684605F08DFCA068C9
:1036600001AA016B684605F087FCA06801AA416BBE
:10367000684605F081FCA1680098C8616A4604208C
:1036800010560821002800DC0020A2681062009576
:1036900003E0A26800988B00D0506068491C81420A
:1036A000F7D3684604214156002904DA3B460DAAA7
:1036B000204601F015F9304611B0F0BD1CB50021CF
:1036C00000910B46019108220149FFF78BFB1CBDBD
:1036D0006C010020F0B595B00446002568460571E0
:1036E000012011900D201290FF2703A8813734216B
:1036F0001390FCF77AFD1821204603F0BFFF060067
:103700007ED1A06801AA00680090A068016B68469D
:10371000FEF7B4F9A06801AA416D6846FEF7AEF95C
:10372000A06801AA016D6846FEF7A8F9A06801AA81
:10373000C16D684605F020FCA16800980860A0688B
:10374000042140680090684641560571002901AA8D
:1037500003DA494205F010FC01E0FEF78FF9A0689A
:1037600001AA416B6846FEF789F9A06801AA816D3C
:103770006846FEF783F9A06801AAC16D6846FEF7A6
:103780007DF9A06801AA016B684605F0F5FBA06809
:1037900001AA016D684605F0EFFBA168009848603A
:1037A000A068042180680090684641560571002990
:1037B00001AA03DA494205F0DFFB01E0FEF75EF9FA
:1037C000A06801AA816B6846FEF758F9A06801AAB3
:1037D000C16D6846FEF752F9A06801AA416B6846C0
:1037E00005F0CAFBA06801AA416D684605F0C4FB5C
:1037F000A16800988860A068C0680090684600E0F2
:1038000001E2042141560571002901AA03DA494267
:1038100005F0B2FB01E0FEF731F9A06801AAC16B27
:103820006846FEF72BF9A06801AA016B6846FEF70F
:1038300025F9A06801AA016D6846FEF71FF9A06886
:1038400001AA416D6846FEF719F9A06801AA816BCB
:10385000684605F091FBA06801AA816D684605F0F5
:103860008BFBA06801AAC16D684605F085FBA168C5
:103870000098C860A068042100690090684641561D
:103880000571002901AA03DA494205F075FB01E040
:10389000FEF7F4F8A06801AA416D6846FEF7EEF85D
:1038A000A06801AA416D6846FEF7E8F8A06801AA81
:1038B000016C6846FEF7E2F8A06801AA416B684611
:1038C000FEF7DCF8A06801AA016B6846FEF7D6F89F
:1038D000A06801AA016D6846FEF7D0F8A06801AAA9
:1038E000816D6846FEF7CAF8A06801AAC16B6846F8
:1038F00005F042FBA06801AAC16D684605F03CFBDB
:10390000A06801AAC16D684605F036FBA168009861
:103910000861A0680421406900906846415605711D
:10392000002901AA03DA494205F026FB01E0FEF76F
:10393000A5F8A06801AA816D6846FEF79FF8A06807
:1039400001AA816D6846FEF799F8A06801AA416C4A
:103950006846FEF793F8A06801AA816B6846FEF7F7
:103960008DF8A06801AA416B6846FEF787F8A06849
:1039700001AA416D6846FEF781F8A06801AAC16DF1
:103980006846FEF77BF8A06801AA016C684605F05E
:10399000F3FAA16800984861A0680421806900904A
:1039A000684641560571002901AA03DA494205F02B
:1039B000E3FA01E0FEF762F8A06801AAC16D68466B
:1039C000FEF75CF8A06801AAC16D6846FEF756F8DC
:1039D000A06801AA816C6846FEF750F8A06801AAA9
:1039E000C16B6846FEF74AF8A06801AA816B684679
:1039F000FEF744F8A06801AA816D6846FEF73EF81C
:103A0000A06801AA416C684605F0B6FAA168009862
:103A10008861A0680421C06900906846415605711C
:103A2000002901AA03DA494205F0A6FA01E0FEF7EF
:103A300025F8A06801AAC16C6846FEF71FF8A068C7
:103A400001AA016C6846FEF719F8A06801AAC16BCB
:103A50006846FEF713F8A06801AAC16D6846FEF734
:103A60000DF8A06801AA816C684605F085FAA16886
:103A70000098C861A0680421006A00906846415619
:103A80000571002901AA03DA494205F075FA01E03F
:103A9000FDF7F4FFA06801AA016D6846FDF7EEFF8F
:103AA000A06801AA416C6846FDF7E8FFA06801AA7A
:103AB000016C6846FDF7E2FFA06801AAC16C684688
:103AC00005F05AFAA16800980862A0680421406ACB
:103AD0000090684641560571002901AA03DA49425F
:103AE00005F04AFA01E0FDF7C9FFA06801AA416D9F
:103AF0006846FDF7C3FFA06801AA816C6846FDF720
:103B0000BDFFA06801AA416C6846FDF7B7FFA06839
:103B100001AA016D684605F02FFAA1680098486275
:103B2000A0680421806A009068464156057100290A
:103B300001AA03DA494205F01FFA01E0FDF79EFFF2
:103B4000A06801AA816D6846FDF798FFA06801AAE8
:103B5000C16C6846FDF792FFA06801AA816C6846B7
:103B6000FDF78CFFA06801AA416D684605F004FAD4
:103B7000A16800988862A0680421C06A0090684625
:103B800041560571002901AA03DA494205F0F4F90A
:103B900001E0FDF773FFA06801AAC16D6846FDF75B
:103BA0006DFFA06801AA016D6846FDF767FFA06878
:103BB00001AAC16C6846FDF761FFA06801AA816D8A
:103BC000684605F0D9F9A1680098C8626A460420E1
:103BD00010560C21002800DC0020A268106300951C
:103BE00003E0A26800988B00D0506068491C8142B5
:103BF000F7D3684604214156002904DA3B4611AA4E
:103C0000204600F06DFE304615B0F0BD70B504469C
:103C10004068A4B00E2802D8002024B070BD012056
:103C2000039060680E3804900E2801D92948F4E703
:103C300007AE3C2107A80596FCF7D7FA0498A168BF
:103C4000820007A83831FCF7A9FA0E20002503E00E
:103C50008200A168401C8D5061688142F8D82146DD
:103C600003AA084603F0A9F90028D6D103980499BD
:103C70000090019116A8382207A90290FCF78EFA4D
:103C8000E021684604F019F90028C6D121466A46A9
:103C9000084603F092F90028BFD1072002E0810016
:103CA0007550401C04998142F9D803A96A46084618
:103CB00003F083F90028B0D10F200490E02103A87D
:103CC00004F0AAF80028A8D1214603AA084603F068
:103CD00074F9A2E780B0FFFF10B50446406896B0C3
:103CE000112802D2002016B010BD01201290606889
:103CF00010381390122801D912201390684614909E
:103D00001398A168820068464031FCF747FA092100
:103D100012A804F0D2F80028E5D1A068016CC9050A
:103D2000C90D01641120002103E08300A268401C3A
:103D3000D15062688242F8D8214612AA084603F0A0
:103D4000CBF8D0E770B50546486E0C46002809D080
:103D5000286800280CDA0021284603F0A8F900287A
:103D60000DD105E02946221D084603F01EFE70BD58
:103D7000284603F047F9A16D4900884201D913484C
:103D800070BD616E2846884704E02946221D08461A
:103D900003F013F9060016D1286800280DDA002177
:103DA000284603F084F90028EFD106E02946221DB9
:103DB000084604F001F9060005D1211D284603F04C
:103DC0008DF90028F2DA304670BD000080B0FFFFA8
:103DD000012392080360426081607047FFB5D1B053
:103DE00005460146549834310C3003F077F9002829
:103DF00006D129462831549803F070F9002808D0DC
:103E000000210491FF20EA6D8130824203D3052016
:103E100002E00121F5E70420002900D0401C06281B
:103E200000D90620824200D8022002900121401EC3
:103E30008140CEB210180299FCF756F9039004980D
:103E4000002802D06C6F002C23D124213046FCF7CF
:103E5000EBF9040001D0002708E0354F4CE02420A6
:103E60007843001901F0BAFC7F1CFFB2B742F6D3C9
:103E70005C9903980191009021462846029B549A30
:103E800000F092FA070037D10498002801D0AE67FD
:103E90006C67029B5A9A52980C925B9A04925C9AB5
:103EA000039F0790539905A80392009301903B4606
:103EB0000EAA2846FEF7C4FB00281CD104990398DB
:103EC0000C9B049002930EA8039100900197334637
:103ED00022462846079900F02DF800280BD16846A5
:103EE000027D2846079900F09FFB002803D1284651
:103EF000079900F001F90746686FA0420FD0002C27
:103F00000DD0002506E024206843001901F058FC7C
:103F10006D1CEDB2B542F6D3204600F003FD002F34
:103F200002D0529801F04CFC384655B0F0BD00006C
:103F300080B2FFFFFFB58BB00E4601A8149F159C01
:103F400001F04CFC385D009031460E9B0D9A0B98A9
:103F500000F08DFB05002CD130460121183003F014
:103F600007FD050025D11698002820D002463146CD
:103F7000179B0B9800F08CFA17E032461146641E2E
:103F80000B98FEF70CFD050013D1385D009001A9D8
:103F90000E9B0D9A0B9800F06AFB050009D1324682
:103FA00001AB11460B98FEF7BDF8050001D1002CBE
:103FB000E3D101A801F004FC28460FB0F0BDFFB525
:103FC00093B005460E4602A81C9F01F007FC0EA800
:103FD00003F07CFB0EA8169903F0C7F804007ED10D
:103FE00002A8169901F0F4F804007CD101213046B2
:103FF00003F0BEFC040076D13046183000210B904F
:1040000003F0B6FC04006ED130460C3003F093FA96
:1040100006E002A92A1D084603F0CEFF040062D183
:10402000291D02A803F05AF80028F2DA002F07D061
:104030003A4602A928461D9B00F0A8FA040052D176
:10404000159802F0DFFF074608A80D902DE03946CD
:10405000159803F002FBC0B202460C9002A930464C
:1040600003F069FE04003ED10C9A0D990B9803F001
:1040700062FE040037D10EA902A8334601910090D8
:1040800002AA19462846FEF721FB04002BD102A9FB
:1040900030460C9A03F04FFE040024D10C9A0D997F
:1040A0000B9803F048FE04001DD17F1ECFD20B9960
:1040B0002A1D0C46084603F00FFB002812D131469A
:1040C0002246084603F0AEFC00280BD129463046B4
:1040D000FFF738FE002805D10121204600E002E06C
:1040E00003F046FC044602A801F06AFB0EA803F0A8
:1040F00022FA204617B0F0BDF0B50D460646284618
:10410000183087B00021074602F0D1FF00284ED0BA
:10411000684603F0DBFA03A803F0D8FA321D3946EB
:10412000684603F0D9FA04003AD16A46114603A85A
:1041300003F078FC040033D1314603A8FFF702FEF8
:1041400004002DD1294603AA084603F06BFC0400A5
:1041500026D131462846FFF7F5FD040020D1294637
:104160000C3103AA0D46084603F05CFC040017D18D
:1041700031462846FFF7E6FD040011D129466A467C
:10418000084603F04FFC04000AD131462846FFF7E9
:10419000D9FD040004D10121384603F0E9FB0446AF
:1041A000684603F0C8F903A803F0C5F9204607B034
:1041B000F0BD0000F7B590B01546022A06D211985E
:1041C00001681098FFF798FF13B0F0BD0C2110465E
:1041D000FCF72AF8070001D0002407E07148F3E754
:1041E0000C206043C01903F071FA641CAC42F7D391
:1041F00005A803F06BFA09A803F068FA0CA803F00D
:1042000065FA119801683846183102F0AEFF0400D3
:104210007ED1012614E01198B10042580C20704361
:10422000C01901460C391832089003F0FBFB04005A
:104230006ED110990898FFF785FD040068D1761CAF
:10424000AE42E8D30C206843C119109A05A80C3976
:10425000121D03F041FA04005AD16E1E002E0AD03E
:104260000C207043C21905A909A80C3A03F0DAFB27
:1042700004007FD104E005A909A802F076FF13E04D
:1042800009A81099FFF75EFD040073D11198B100E1
:10429000425805A90846183203F0C4FB040069D14E
:1042A00005A81099FFF74EFD040063D109AA114635
:1042B0000CA803F0B7FB04005CD10CA81099FFF721
:1042C00041FD040056D1B0001199039008580CAA82
:1042D000014603F0A7FB04004CD11199039808583C
:1042E0001099FFF72FFD040044D1119903980CAAEF
:1042F00009580C31084603F095FB04003AD1119996
:104300000398085810990C30FFF71CFD040000E0DA
:1043100030E02FD11199039809AA08580C300146B2
:1043200003F080FB040025D11199039808581099D7
:104330000C30FFF707FD04001CD11098119A81681A
:104340000398105803F0FCFD040013D11098119A43
:104350008168039810580C3003F0F2FD040009D175
:10436000119903980858183003F0E5F8002E01D091
:10437000761E73E705A803F0DEF809A803F0DBF862
:104380000CA803F0D8F8002605E00C207043C019F3
:1043900003F0D1F8761CAE42F7D3384600F0C2FAEB
:1043A000204611E780B2FFFFFFB55E1E01200C46DC
:1043B000B040C7B2A1B000251146204600F008FF6A
:1043C000002863D12A9846431EE028462A99FBF725
:1043D0008BFE024601209040C0B2242242431219B3
:1043E0000092002908D140082421484301191046B1
:1043F00000F0EEFE002849D1009A21981146FEF700
:10440000CEFA002842D16D1CAE42DED80022012037
:1044100008E0242141430B199500400601A9000E34
:104420004B51521CB842F4D301A92198FFF7C2FEA8
:1044300000282BD1012616E02420704300193546B0
:1044400000900CE02420684302197019242148438D
:104450000119009B2198FDF765FE002816D16D1EFD
:10446000F0D27006060EBE42E6D3002201A806E096
:1044700024215143091993002431C150521C511C6D
:10448000B942F5D301462198FFF794FE25B0F0BD5F
:10449000FFB50546806D87B0C01DC00806900F4669
:1044A0000026684603F012F903A803F00FF96846E6
:1044B0000A9B099A069903F00FF803E00121684668
:1044C00003F0FBFC040056D1291D684602F006FEED
:1044D0000028F3DA3046761C0A2802DD2A480BB0A1
:1044E000F0BD0121684602F0E2FD0028DFDD39461B
:1044F00018316A460E46084603F094FA04003AD191
:1045000029463046FFF71EFC040034D16A461146A6
:1045100003A803F087FA04002DD1294603A8FFF76A
:1045200011FC040027D1394603AA084603F07AFAA1
:10453000040020D129463846FFF704FC04001AD1B4
:1045400003A96A46084603F06DFA040013D1294610
:1045500003A8FFF7F7FB04000DD139460C3103AA7D
:104560000E46084603F05EFA040004D129463046A0
:10457000FFF7E8FB0446684602F0DDFF03A802F0FF
:10458000DAFF2046ABE7000000B3FFFFFFB50546AA
:10459000806D85B0C01DC00803900F460026684698
:1045A00003F094F86846089B079A039902F094FF79
:1045B00003E00121684603F080FC04002DD1291D91
:1045C000684602F08BFD0028F3DA3046761C0A2894
:1045D00002DD144809B0F0BD0121684602F067FD14
:1045E0000028DFDD39466A46084603F01BFA04005E
:1045F00013D129463846FFF7A5FB04000DD13946F3
:1046000018316A460E46084603F00CFA040004D13D
:1046100029463046FFF796FB0446684602F08BFFBA
:104620002046D7E700B3FFFFFEB5054614460E4609
:10463000684603F04BF832460C321646291D684690
:1046400003F009FD05000DD10021304602F02FFDD9
:10465000002800D00120224602406946304603F07F
:1046600037FB0546684602F066FF2846FEBDFFB5EB
:1046700081B00A9E1F467006850E00241DE0AC42E4
:1046800001D1012200E00022242003996043411857
:104690000091029803F01CFB002815D1AC4201D117
:1046A000012200E00022029800990C300C3103F046
:1046B0000FFB002808D1641CE4B2BC42DFD3F2092E
:1046C00002990198FFF7B0FF05B0F0BD70B5044640
:1046D00023A21021103003F069FA050034D1012122
:1046E000201D03F045F905002ED1FF21201D03F008
:1046F00093FB050028D11322211D201D03F094FCFB
:10470000050021D1201D02F07DFCA06520464C3023
:1047100015A21021064603F049FA050014D1012222
:10472000FC21304603F04CFB05000DD12046092149
:10473000283003F01DF9050006D120460121403044
:1047400003F016F9050004D0204600F0EBFD2846E2
:1047500070BD2046343002F0EEFEFE20E065F6E744
:104760003031444234320000313444454639444506
:1047700041324637394344363538313236333141A8
:10478000354346354433454400000000FEB5044639
:10479000684602F09BFF102130A2601803F006FA71
:1047A000050050D10121201D03F0E2F805004AD197
:1047B000E021201D03F030FB050044D10122211D22
:1047C000201D03F031FC05003DD1E021201D03F048
:1047D00023FB050037D10122211D201D03F024FCFD
:1047E000050030D1201D02F00DFCA06520460521FA
:1047F000283003F0BDF8050025D1204601214030C6
:1048000003F0B6F805001ED12046343002F093FEC6
:104810002046FF214C300122BF31064603F0D0FA7A
:10482000050010D10FA21021684603F0BFF9050062
:1048300009D131466A46084603F00DFC050002D155
:10484000FF20C030E065684602F075FE002D02D002
:10485000204600F067FD2846FEBD00003938414182
:10486000000000003833333544433136334242319F
:10487000323442363531323943393646444539339C
:104880003344384437323341373041414443383779
:10489000334436443534413742423044000000004E
:1048A000FFB583B0064614460D460C480C9F00F039
:1048B00017F980223146094800F07EF901972B460E
:1048C000009401210548069A00F0AEF8002802D0B5
:1048D000002007B0F0BD0120FBE70000900400209D
:1048E00010B5134604465868926880004942001F7C
:1048F000115022461946104603F05EFB002801D1F4
:10490000411E216010BD000038B5044668460470A1
:104910000523012269460248FCF7B0FA204638BD5B
:104920008401002010B5002823D0124B0022001F64
:10493000196803E0814203D80A4649680029F9D181
:10494000002A0AD01368841A9C4204D100681818FF
:104950001060104602E0506000E01860002907D0A7
:1049600002680B1A934203D10B68D218026049689F
:10497000416010BD7C01002008B5FBF775FDFCF718
:104980001AFB0D48426B04210A434263426B0A4002
:104990000092426B20210A434263426B0A4000921C
:1049A000416B012211434163406B10400090FCF7C2
:1049B000D7FA04F01FF8FCE700100240F0B50B3006
:1049C000C108C900144F0026144A0FE003688B4247
:1049D0000BD38B4205D95C1A4318456830C3083B9A
:1049E00000E04368136002C004E0021D1068002864
:1049F000ECD13046002803D13868002801D00020CF
:104A0000F0BD064A06481060064A121AD208D200C3
:104A100044C001203860D7E7800100207C010020DD
:104A2000F4270020F0470020FFB585B00E9E0F9CB4
:104A30001F461546100703D02120C04309B0F0BD22
:104A4000069800281BD033E0102231466846FBF759
:104A5000A5FB234632460699059800F02DF8002064
:104A6000215C3A5C51402154401C1028F8DB102294
:104A700069463846FBF792FB1034103D1036002D86
:104A8000E2D117E00020315C3A5C51402154401CD7
:104A90001028F8DB23461A460699059800F00CF812
:104AA000102221463846FBF779FB1034103D1036B2
:104AB000002DE7D10020C1E710B5144601291A46A0
:104AC000214602D001F08EF810BD01F093FA10BD1E
:104AD00010B5002803D0FF21193103F01BFB10BDD6
:104AE00010B5FF211931FBF780FB10BDF0B5C7B041
:104AF000054616460F4601A8FFF7F2FF2C4608347C
:104B00003246394601A86C6000F056F80090002843
:104B100042D101982860019902980901411808685A
:104B20002060486860608868A060C868E0602868A5
:104B30001039401E8446103424E000230A681948C6
:104B4000D5B2455D091DAE00174D5B1CAD5916046D
:104B5000360E865DB700154EF65975401602360EB4
:104B6000865D120E805CB7008200114E1148F65926
:104B700080584640754020C4042BDFDB6046401E51
:104B8000844620390028D8DC0868206048686060C6
:104B90008868A060C868E06001A8FFF799FF0098E6
:104BA00047B0F0BDC8050020C8170020C81B002072
:104BB000C81F0020C8230020F7B582B0174605465D
:104BC000802A08D0C02F08D0F81FF9380CD01F2039
:104BD000C04305B0F0BD0A2000E00C20604C286006
:104BE0002068002802D005E00E20F7E7FCF772FFEE
:104BF000012020602C46083400267F096C600FE0FD
:104C0000B0000399019040180090FBF71BFB0102D4
:104C10000098090AC078000601430198761C2150CB
:104C2000B742EDD829684F4F4F480A2904D00C29C4
:104C300027D00E2924D14FE000229300FB58216891
:104C4000521C5940E3681E021D04360E2D0E865D6F
:104C5000455D3602754069401D0E455D2D04694075
:104C6000DDB2455D2D066940216165684D40656195
:104C7000A16869404B40E361A16110340A2ADCD38A
:104C80006BE000239A00BA5821685B1C51406269AE
:104C900016021504360E2D0E865D455D36027540F2
:104CA0006940150E455D2D046940D5B2455D2D0660
:104CB0006940A16165684D40E561A1686940216274
:104CC000E5684D406562216969404A40E262A1623F
:104CD0001834082BD6D340E00022224B95005B59B4
:104CE0002168521C5940E3691E021D04360E2D0E28
:104CF000865D455D3602754069401D0E455D2D049B
:104D00006940DDB2455D2D066940216266684E400E
:104D10006662A5687540A562E1686940E162CEB24D
:104D2000865D25690F0275400E04360E3F0E865DC6
:104D3000C75D090E36023F04415C7E40754009069E
:104D40004D402563616969406163A5694D406B40D1
:104D5000A563E3632034072ABFD3002039E70000AE
:104D600054010020C8270020C8050020F7B50546DB
:104D7000046801985F27001BFF431646012847DBA4
:104D800021780A0604D4601C28602078306039E05D
:104D90004906490E012908D002290DD0032916D051
:104DA000042921D06320C043FEBD022830DB607897
:104DB00030602868801C24E0032829DBA078617813
:104DC0000002084340BA30602868C01C19E004287B
:104DD0001EDB6078A178000409020843E1780843EB
:104DE00030602868001D0CE0052811DB601CFBF713
:104DF00029FA00BA000A21790002084330602868C5
:104E0000401D28602A6801983168801A814201D9C2
:104E10003846FEBD0020FEBD38B5154604460223C7
:104E20006A4600F00CF8002808D121682846009A4C
:104E300002F059FE2168009A8918216038BD70B5CA
:104E400004680D1B012D02DA5F20C04370BD257878
:104E50009D4202D06120C04370BD641C0460FFF716
:104E600085FF70BDF0B50368D4B2591A802A06D206
:104E7000012942DB5B1E03601C700120F0BDFF2A8C
:104E80000BD8022939DB5B1E03601C70016881228C
:104E9000491E01600A700220F0BD254D1604370E30
:104EA000AA420FD8032928DB5B1E03601C7001682F
:104EB0008222491E01600F700168491E01600A705C
:104EC0000320F0BD1B4E15022D0EB24213D804294B
:104ED00013DB5B1E03601C7001688322491E0160A6
:104EE0000F700168491E01600D700168491E016064
:104EF0000A700420F0BD052902DA6B20C043F0BD22
:104F00005B1E03601C700168120E491E01600F7069
:104F10000168491E01600D700168491E01600A7038
:104F200001688422491E01600A700520F0BD00005E
:104F3000FFFF0000FFFFFF00F7B505460E46029891
:104F400003F034F804466B272868FF43B04215D3BA
:104F5000811BA14212D3011B29602246029803F053
:104F6000A0F800280BD10298006801280DD128680C
:104F70000178090609D5811B012901DA3846FEBDF1
:104F8000401E002128600170641C224631462846DC
:104F9000FFF768FF0028F2DB24180222314628467A
:104FA00000F004F80028EADB2018FEBD0368591A57
:104FB000012902DA6B20C04370475B1E03601A7040
:104FC0000120704710B5002801D000F03AFB10BD59
:104FD00010B500F044FB10BD7CB5069C0025019582
:104FE000009400F001F87CBDFFB58BB00446149826
:104FF000159F1D1805A8039302F068FB08A802F08E
:1050000065FB302304AA294603A8FFF718FF9F2653
:10501000F601002814D1049903984018A84201D041
:10502000164C21E005AA294603A8FFF7F5FE002843
:1050300006D108AA294603A8FFF7EEFE002801D0F2
:10504000841B11E008A805A923460297009101904E
:10505000883320460D9A0C99FCF7CAFF040003D14F
:105060000398A84200D0064C05A802F064FA08A8EC
:1050700002F061FA20460FB0F0BD00001AB0FFFF49
:1050800000B4FFFFF0B585B084460AA8F0C80397C6
:105090006F4670C700200490604600F002F805B02B
:1050A000F0BDF0B58BB004461E4615460F4604A869
:1050B00002F00CFB07A802F009FB149823460390AA
:1050C0007C3307AA04A90297019600952046FCF7B5
:1050D0005BFE040006D107A904A8119B109AFCF7F7
:1050E00055FF044604A802F026FA07A802F023FAA6
:1050F00020460BB0F0BD000070B50E46044600F02F
:1051000005F91B4D022806D0204600F0FFF80128C3
:105110001DD0184870BD0021304602F09EFA0028CC
:1051200022D10121304602F098FA00281CD13046E5
:1051300001F068FFE16D401E884215D1FE2915D1AE
:105140000221304602F089FA00280DD10EE001213B
:10515000304601F0ACFF002806DB21464C313046DA
:1051600001F0BCFF002801DB284670BD002070BDA7
:1051700080B3FFFF80B0FFFF70B50C4606462046A7
:105180000121183001F093FF0F4D002813D1304654
:1051900000F0BCF8022806D0304600F0B7F801282D
:1051A0000DD00A4870BD204602F000FFF16DC91D08
:1051B000C908884201D9284670BD002070BD21462B
:1051C0003046FDF75FF970BD80B3FFFF80B0FFFF91
:1051D00070B50C46054601F0C8FF00280DD12146E8
:1051E00028460C310C3001F0C0FF002805D12146C3
:1051F00028461831183001F0B8FF70BD0146054847
:1052000003E042888A4204D00C300278002AF8D1A8
:1052100000207047B4900008FFB5044683B03948B9
:105220000090E06DC01DC508204600F06FF8022810
:105230003AD104AE0DCE294602F04EF90090002876
:105240005ED1049801F0DEFE0028F2D0049801F04F
:10525000D9FEE16D401E814204D2411A049802F049
:105260002CFE03E00122049802F0AAFD0090002821
:1052700046D100221146049802F0A2FD00900028B9
:105280003ED100220121049802F09AFD00900028EE
:1052900036D1E06DFE2807D100220221049802F0E9
:1052A0008FFD009000282BD1204600F02FF8012818
:1052B00026D10026EF0020464C30019004A80DC8EE
:1052C000294602F009F90090002819D1E06D391A39
:1052D000049802F0F2FD0090002811D1761C1E2ED9
:1052E00002DD094807B0F0BD0121049801F0DFFE9E
:1052F0000028E3DB0199049801F0F0FE0028DDDAD4
:105300000098EFE780B0FFFF00B3FFFF016B0029BB
:1053100004D0C06B002803D00120704700207047E4
:105320000220704770B504002BD0206E012812D0E7
:10533000201D02F000F92046103002F0FCF8204653
:105340001C3002F0F8F82046283000F039FA2046E8
:105350004C3002F0F0F8606F00280ED0002506E017
:105360002420616F6843081800F02AFA6D1CA06FB2
:10537000A842F5D8606FFFF7D5FA7C21204602F0ED
:10538000C9FE70BD70B5002504460570001D02F011
:105390009DF92046103002F099F920461C3002F0A9
:1053A00095F92046283000F019FA20464C3002F0DA
:1053B0008DF9A565E56525666566A566E5662567DB
:1053C0006567A56770BD0000F0B589B00D4604465D
:1053D000FFF7A8FF2570002704211826202230207F
:1053E0002B00FCF7D1F80EFC081C31455AB0C4D78D
:1053F000F06E849BF6FC7C4860667C480790014612
:10540000183905910696303830390896002318224D
:10541000019102960097049603901839CBE07448E6
:1054200060661C20714906908C310A1A079105921A
:1054300038390A1A08900192002303912022029021
:10544000009704903C39B6E06A4860666A48079065
:10545000014620390591069208924038403902925F
:105460000492002301912022009703902039A2E0AA
:105470006249616660490690E0310A46303A059219
:105480000791603A0890603901920023039130221D
:1054900002900097049060398DE05948606644207E
:1054A000584907910A1A059288390A1A06900890F5
:1054B00000230192039102900097049002468839DC
:1054C00079E0514860664F4806968C300246183A9B
:1054D0000592464A0790743A3038131F0192089695
:1054E00002910091182204960390811A63E04748C4
:1054F0006066444B1C20F8331D1A07933B4B0892FF
:10550000059506902A1A6C3B029101930091039233
:105510001B1F29460490024638394CE03C4860661F
:105520003C4806920346203B0593304B0790089277
:10553000643B403801930492029100911B1F20228A
:105540000390811A37E033480692C0300146079035
:10555000203905914038089240390292049203465E
:105560000092403B019120220390403923E02A49D8
:1055700007910A46303A059260390690603A0890E1
:105580000B460192603B0391302202900490009000
:10559000903910E04020214907910A1A059280397C
:1055A0000A1A06900890131A01920391029004902F
:1055B00000900246C0392046FDF7D8FB09B0F0BD87
:1055C00007E000E00BE0164860662046FFF77EF833
:1055D000F4E7144860662046FFF7D8F8EEE7204667
:1055E000FFF7A0FE1048E9E71B2F0008BC91000858
:1055F000CD2F0008A1320008E4920008D53600083B
:10560000D93C000804950008B52F0008F9310008BE
:10561000BD3600087C9600084C980008BC9900082C
:10562000113200080D3C000880B1FFFF10B50021C9
:10563000183001F03CFD002801D0002010BD0120F1
:1056400010BD10B5040009D0FFF76CFE20467C3079
:1056500001F071FF2046883000F0B2F810BD10B59F
:105660000446FFF78FFE20467C3002F02FF82046DC
:10567000883000F0B3F810BDFFB583B0164C0E9F14
:105680000C9E0D9D05990398FFF736FD020020D171
:1056900006990398FFF770FD02001AD1224603987D
:1056A000FFF734FE022807D103AC009601950FCC1A
:1056B000FEF785FC02000CD10398FFF727FE0128B6
:1056C00007D103AC0297009601950FCCFEF786FB3D
:1056D0000246104607B0F0BD80B0FFFFFFB583B0B3
:1056E0000D4606461F4601210C9C059801F0DFFC83
:1056F000002811D00021C943059801F0D8FC0028EA
:105700000FD00020009001903B460294294630467D
:10571000059AFFF7B1FF17E039462846FFF758FD15
:1057200012E039462846FFF753FD04000DD1284604
:105730000C300021054601F0BAFC002805D02A46AD
:10574000311D104602F087FC0446204607B0F0BD2C
:10575000FFB58BB01C4601AE0D46169F0B98FFF7A8
:10576000D5FD012802D015480FB0F0BD01A800F00A
:1057700035F82346009731460D9A0B98FFF7AEFF98
:10578000040015D100972946159B149A0B98FFF732
:10579000A5FF04000CD12B46324619460B98FCF7A6
:1057A000C1FC040004D129460B98FEF7A5FC044671
:1057B00001A800F005F82046D6E7000080B1FFFF01
:1057C00010B5040009D001F0B6FE20460C3001F0FF
:1057D000B2FE2046183001F0AEFE10BD10B50446F2
:1057E00001F074FF20460C3001F070FF20461830A5
:1057F00001F06CFF10BD0000FFB585B033481E00FE
:1058000017460C46039047D00598001D02F0CEFBCA
:1058100005460598FFF77AFD014620460C300190B9
:105820000C300290022920D1B54235D12A463946A2
:10583000204602F08AF90390002845D1019801F032
:105840007AFE05980078092808D1E9000022204650
:10585000491E02F0B5FA0390002835D101210298C3
:1058600002F086F8039000282ED10598FFF74EFD30
:10587000012829D13878002804D0042808D01348FA
:1058800009B0F0BD012E07D1204600F023F8F7E75C
:105890006800401CB04201D00D48F1E72A46791C4F
:1058A000204602F020F9039000280DD179192A46EC
:1058B000491C019802F017F90390002804D1012136
:1058C000029802F055F803900398D9E780B1FFFFE2
:1058D00080B0FFFF10B50446012102F049F800280E
:1058E0000BD1204601210C3002F042F8002804D1EF
:1058F00020460021183002F03BF810BD38B50446B0
:10590000684600F009F8002804D16846017820466E
:10591000FFF75AFD38BD000030B50F4D0446032A8D
:1059200005D30868431C0B600078032801D0284683
:1059300030BD5A1C0A6018789B1C0B60117800025D
:105940000843FFF75BFC002803D00078207000209C
:1059500030BD024830BD000080B0FFFF80B1FFFFC6
:1059600010B5040005D001F0A5F94421204602F04D
:10597000D1FB10BD10B54421FAF737FC10BD08B5B6
:105980000023009300F001F808BDFFB587B004467E
:105990001546109E006801F0A8F907460898059082
:1059A00001208002854203D90220C0430BB0F0BD24
:1059B000FF200130864202D90420C043F6E7E06BA5
:1059C00000280ED0606B012803D0A16BE06A8842EA
:1059D00007DD324620460A9900F042F80028E5D15A
:1059E00000260A98002808D0002E06D0014632462C
:1059F000204600F094F80028D8D120460C300190C1
:105A0000002D22D0BD4201D9384600E0284604903E
:105A1000204601F0A5F90028C8D13A462046019950
:105A200001F016FA0028C1D12046019901F062F96F
:105A30000028BBD1049A01990598FAF7AFFB0499A5
:105A4000059840186D1A0590DAE7324620460A9903
:105A500000F065F80028A9D1E16A491CE162A5E7D8
:105A6000F0B50446FF200130E1B015460F468242F2
:105A700005D8266BFF2170198131884203D9042093
:105A8000C04361B0F0BD6846FAF7AFFBE36B324646
:105A90006946206C9847002802D00820C043F0E7F0
:105AA000266B002F08D0002D06D0684680192A46A4
:105AB0003946FAF773FB761932466946204600F0FC
:105AC0002EF8050001D10120E0623146684602F05F
:105AD00021FB2846D5E7F8B516461D460F46044675
